:1000000044C1000073C1000071C100006FC1000055
:100010006DC100006BC1000069C1000067C1000034
:1000200065C1000063C1000061C100005FC1000044
:100030005DC100005BC1000059C1000057C1000054
:1000400055C1000053C1000051C100004FC1000064
:100050004DC100004BC1000049C100000C94330B9E
:1000600045C100000C94370E0C940E0E3FC10000E9
:100070003DC100003BC1000039C1000037C1000094
:1000800035C1000033C1000031C100002FC10000A4
:100090002DC100002BC1000029C1000027C10000B4
:1000A00025C1000023C1000021C100001FC10000C4
:1000B0001DC100001BC1000019C1000017C10000D4
:1000C00015C1000013C1000011C100000FC10000E4
:1000D0000DC100000BC1000009C1000007C10000F4
:1000E00005C10000D606DA06DE06E206E606EA06E6
:1000F000EE06200827082E0835083C085408430857
:1001000054084A08E809EB09DA09DE09E409220A79
:10011000EF09F309F909FD09010A070A0B0A0F0A99
:10012000220A150A190A1D0A4D1248124D125012C0
:100130005E1259125E1261126C1268126C126F120A
:100140007B1276127B127E128A1285128A128D120F
:100150009912941299129C12A812A312A812AD120D
:10016000B412F1122C1300002100240027002A00F1
:100170002D003000330001010000040107010A01D5
:1001800000002200250028002B002E003100340042
:1001900002010000050108010B01000020002300FE
:1001A000260029002C002F0032000001000003016E
:1001B00006010901050505050705080808080202EA
:1001C00002020A0A080804040404010101010101F1
:1001D00001010303030303030303040707070C0CD4
:1001E0000C0C0C0C0C0C020202020606060606069B
:1001F00006060B0B0B0B0B0B0B0B01021020200840
:100200000810204010204080020102010804020171
:1002100001020408102040808040201008040201E0
:100220008004020180402010080402010804020139
:1002300001020408102040800102040810204080C0
:1002400000000A0B02090C0D0E0807030401000050
:10025000000000000000000000000000000000009E
:10026000000000000000000000000000121110005B
:10027000000000000000000000000000000000007E
:1002800000000000000036147C1011241FBECFEFC8
:10029000D1E2DEBFCDBF00E00CBF12E0A0E0B2E0D3
:1002A000E2EFF4E300E00BBF02C007900D92AE3C1A
:1002B000B107D9F728E0AEECB2E001C01D92A83535
:1002C000B207E1F711E0C4E4D1E000E006C02197F5
:1002D0000109802FFE010E946C19C334D10780E010
:1002E0000807A9F70E9484100C94681A89CEAAE521
:1002F000B2E0ED91FD91108A118A128A138A148A54
:10030000158A168A178A14AA15AA16AA17AA13827A
:10031000148215821682108E118E128E138E82E038
:10032000A836B80731F70C94820F0F931F93CF9321
:10033000DF931F921F92CDB7DEB780915408909142
:100340005508009711F488E598E08E010F5F1F4F64
:10035000081B190B80918603811110C081E08093E6
:10036000860380938D032AE04CE050E060E070E06B
:100370008091D7059091D8050E94D40F1A830983E4
:1003800080918603882371F06091DA058091D7050A
:100390009091D8050E94AF0F89810E94B60F8A8183
:1003A0000E94B60F809186038823A1F06091D90541
:1003B0008091D7059091D8050E94AF0F80918E0350
:1003C000882341F06AEC72E08091D7059091D805BE
:1003D0000E949A0F10928D03109286030F900F9037
:1003E000DF91CF911F910F910895CF93DF930E94DA
:1003F0005D0FEC019093DD028093DC020E943A10C5
:1004000023E0CC0FDD1F2A95E1F7CA5CD74F6C8340
:100410007D838E839F83DF91CF910895CF93DF9368
:100420000E945D0FEC019093DD028093DC020E943C
:100430003A1023E0CC0FDD1F2A95E1F7CA5CD74FB5
:10044000688379838A839B83DF91CF910895CF93CB
:10045000DF930E945D0FEC019093DD028093DC023C
:100460000E943A100E94C216AB01BC01CC0FDD1FE6
:10047000C65ADD4F88819981DF91CF910C94270C6A
:10048000CF93DF930E945D0FEC019093DD02809388
:10049000DC020E943A100E94C216AB01BC01CC0FD4
:1004A000DD1FC65ADD4F88819981DF91CF910C9471
:1004B000040CCF93DF930E945D0FEC019093DD025B
:1004C0008093DC020E943A10CC0FDD1FC65ADD4F2C
:1004D000E881F981608B718B828B938B648B758B38
:1004E000868B978B14AA15AA16AA17AA13821482B0
:1004F00015821682108E118E128E138EDF91CF917F
:100500000C94820F0E945D0F9093DD028093DC02B9
:10051000880F991FFC01E65AFD4F0190F081E02DF4
:10052000108A118A128A138A148A158A168A178ADF
:1005300014AA15AA16AA17AA138214821582168263
:10054000108E118E128E138E0C94820F0E945D0FEE
:100550008093E70208950C940E160F931F93CF9388
:10056000DF931F921F92CDB7DEB780918603811172
:1005700010C081E08093860380938D032AE042E0DF
:1005800050E060E070E08091D7059091D8050E941E
:10059000D40F0AE512E0D801ED91FD918D0180891B
:1005A00091899A83898380918603882371F0609171
:1005B000DA058091D7059091D8050E94AF0F898107
:1005C0000E94B60F8A810E94B60FB2E008361B0760
:1005D00011F7809186038823A1F06091D90580915D
:1005E000D7059091D8050E94AF0F80918E03882384
:1005F00041F06AEC72E08091D7059091D8050E9495
:100600009A0F10928D03109286030F900F90DF9136
:10061000CF911F910F910C94820F9FCFCF92DF92B9
:10062000EF92FF92CF93DF936A017B01880F991FAE
:10063000FC01E65AFD4FC081D181E881F981028039
:10064000F381E02DCE0119958C899D89AE89BF89F2
:10065000C816D906EA06FB0689F0CC8ADD8AEE8A3E
:10066000FF8AE881F9810084F185E02DCE01DF91D8
:10067000CF91FF90EF90DF90CF901994DF91CF91C1
:10068000FF90EF90DF90CF900895CF92DF92EF929E
:10069000FF920F931F93CF93DF9300D01F92CDB79C
:1006A000DEB70E940A0F811105C019821A821B82CF
:1006B0001C8213C081E08093D0050091D205109177
:1006C000D305C8010E94F00EF801808189838181E1
:1006D0008A8382818B8383818C8369817A818B81F8
:1006E0009C816093CE027093CF028093D00290934E
:1006F000D10220E030E04AE754E40E9421176B0168
:100700007C0120E030E0A9010E94D318181624F0E3
:10071000F7FAF094F7F8F094B701A60182E597E0B4
:100720000E94270CC090CE02D090CF02E090D00261
:10073000F090D10220E030E0A901C701B6010E948B
:10074000D31818162CF440E157E260E070E00CC0BA
:1007500020E030E0A901C701B6010E94BC1687FF66
:1007600012C040E050E0BA0182E090E00F900F909C
:100770000F900F90DF91CF911F910F91FF90EF900D
:10078000DF90CF904BCF0F900F900F900F90DF9195
:10079000CF911F910F91FF90EF90DF90CF90089530
:1007A0008F929F92AF92BF92CF92DF92EF92FF9281
:1007B000CF93DF93880F991FFC01E65AFD4FC0814C
:1007C000D181888C998CAA8CBB8C20E030E0A90167
:1007D000C501B4010E94BC168823A9F1A5019401AA
:1007E000C501B4010E9421176B017C0168A179A1A8
:1007F0008AA19BA19B01AC010E94D6179B01AC0171
:10080000C701B6010E943A180E94A2186B017C0130
:100810002FEFC21AD20AE20AF20A20E030E0A90160
:10082000C501B4010E94D31818161CF4B701A60123
:1008300007C044275527BA014C195D096E097F0985
:10084000CE010E940E0D40E050E0BA01CE010E94A0
:100850000E0DE881F9810190F081E02DCE01DF914C
:10086000CF91FF90EF90DF90CF90BF90AF909F908F
:100870008F9019940F931F93CF93DF930E945D0F76
:10088000EC019093DD028093DC020E943A10D7FDC8
:1008900006C0C230D10534F0C230D10549F0A2E023
:1008A000B0E002C0A0E0B0E0C230D105D1F502C096
:1008B000A1E0B0E0AB01440F551F60916207709159
:1008C0006307460F571F5093DB024093DA02CD01B6
:1008D00043E0880F991F4A95E1F7FC01EA5CF74F66
:1008E000448155816681778180819181A281B38124
:1008F000841B950BA60BB70B8093D6029093D7025F
:10090000A093D802B093D902440F551F661F771FDA
:100910004093D2025093D3026093D4027093D502D5
:1009200032C0FE01EE0FFF1FE65AFD4F0190F0812D
:10093000E02D20893189A901460F571F5093DB0212
:100940004093DA02CD0123E0880F991F2A95E1F741
:10095000FC01EA5CF74F80819181A281B381809391
:10096000D6029093D702A093D802B093D902848183
:100970009581A681B7818093D2029093D302A093F0
:10098000D402B093D5028091DA029091DB02092E55
:10099000000CAA0BBB0B4091D6025091D70260917C
:1009A000D8027091D90284179507A607B7076CF192
:1009B0004091D2025091D3026091D4027091D5023D
:1009C000481759076A077B0704F1FE01EE0FFF1F66
:1009D000E65AFD4F00811181D801ED91FC91028012
:1009E000F381E02DC80119954091DA025091DB02A4
:1009F000052E000C660B770BC8010E941C10CE015F
:100A0000DF91CF911F910F91CBCEDF91CF911F91AD
:100A10000F910895CF92DF92EF92FF920F931F9361
:100A2000CF93DF930E945D0FEC019093DD028093E2
:100A3000DC020E943A106B017C01D7FD09C0C23074
:100A4000D1054CF0C230D10519F481E090E005C029
:100A500082E090E002C080E090E023E0880F991FE0
:100A60002A95E1F7FC01EA5CF74F80819181A28130
:100A7000B381C816D906EA06FB063CF1848195814C
:100A8000A681B7818C159D05AE05BF05F4F0FE016A
:100A9000EE0FFF1FE65AFD4F00811181D801ED9145
:100AA000FC910280F381E02DC8011995B701A601E0
:100AB000C8010E941C10CE01DF91CF911F910F91B0
:100AC000FF90EF90DF90CF906BCEDF91CF911F9191
:100AD0000F91FF90EF90DF90CF90089560914402C6
:100AE0007091450280914602909147020E94C21681
:100AF000AB01BC018AED97E0AAD6609150027091DB
:100B0000510280915202909153020E94C216AB0191
:100B1000BC018AED97E078D666E08AED97E00E9406
:100B200069108AED97E05ED56091440270914502AC
:100B300080914602909147020E94C216AB01BC010F
:100B400086E997E084D660915002709151028091BD
:100B50005202909153020E94C216AB01BC0186E979
:100B600097E052D667E086E997E00E94691086E92F
:100B700097E038D560914002709141028091420225
:100B8000909143020E94C216AB01BC0182E597E03E
:100B90005ED660914C0270914D0280914E02909110
:100BA0004F020E94C216AB01BC0182E597E02CD631
:100BB00068E082E597E00E94691082E597E012D52F
:100BC00060913C0270913D0280913E0290913F0203
:100BD0000E94C216AB01BC018EE097E038D660914E
:100BE00048027091490280914A0290914B020E9402
:100BF000C216AB01BC018EE097E006D662E08EE043
:100C000097E00E9469108EE097E0ECD460913C027E
:100C100070913D0280913E0290913F020E94C21667
:100C2000AB01BC018AEC96E012D66091480270914B
:100C3000490280914A0290914B020E94C216AB0178
:100C4000BC018AEC96E0E0D563E08AEC96E00E9475
:100C500069108AEC96E0C6D460913C0270913D0226
:100C600080913E0290913F020E94C216AB01BC01EE
:100C700086E896E0ECD56091480270914902809137
:100C80004A0290914B020E94C216AB01BC0186E859
:100C900096E0BAD564E086E896E00E94691086E89E
:100CA00096E0A0D460913C0270913D0280913E029A
:100CB00090913F020E94C216AB01BC0182E496E013
:100CC000C6D5609148027091490280914A02909184
:100CD0004B020E94C216AB01BC0182E496E094D59F
:100CE00065E082E496E00E94691082E496E07AC4AE
:100CF0000895FC01918D228D892F90E0805C9F4F9B
:100D0000821B91098F739927089580E090E0892BC9
:100D100019F00ED7811125C080E090E0892B41F0B9
:100D200080E090E0892B21F00E94000081111CC01E
:100D300080E090E0892B41F080E090E0892B21F069
:100D40000E940000811113C080E090E0892BA1F087
:100D500080E090E0892B81F00E94000081110AC0A0
:100D600008950E940000D8CF0E940000E1CF0E94A9
:100D70000000EACF0C9400000895CF93DF93DC01CC
:100D80004770552766277727FA013197CD91DC9177
:100D90001197E730F10530F48827EE58FF4F8F4F59
:100DA0000C946C19EA85FB8561E01BC0EA85FB8524
:100DB00065E017C0EA85FB8564E013C0EA85FB8522
:100DC00066E00FC0EA85FB8562E00BC0EA85FB8523
:100DD0006AE007C0EA85FB8568E003C0EA85FB8519
:100DE00069E0CD01DF91CF911994CF93DF93EC01AE
:100DF000CB01BA0126E030E040E050E00E945019FB
:100E0000623071058105910559F18CF46115710508
:100E100081059105F1F06130710581059105C1F5FC
:100E2000E881F9810284F385E02D65E02DC064300E
:100E300071058105910511F1D4F0653071058105C9
:100E4000910531F5E881F9810284F385E02D66E0B2
:100E50001BC0E881F9810284F385E02D64E014C0B1
:100E6000E881F9810284F385E02D61E00DC0E8811D
:100E7000F9810284F385E02D63E006C0E881F98101
:100E80000284F385E02D62E0CE01DF91CF911994C9
:100E9000DF91CF9108954370552766277727DC01AE
:100EA000ED91FC910284F385E02D423051056105FE
:100EB000710571F0433051056105710559F04130FC
:100EC00051056105710511F065E005C066E003C0DC
:100ED0006AE001C069E01994CF93DF93EC01CB0184
:100EE000BA0123E030E040E050E00E945019613048
:100EF00071058105910581F06230710581059105CB
:100F000091F0672B682B692BC1F4E881F981028489
:100F1000F385E02D64E00DC0E881F9810284F3855A
:100F2000E02D61E006C0E881F9810284F385E02DBF
:100F300062E0CE01DF91CF911994DF91CF910895B6
:100F40004370552766277727DC01ED91FC910284D9
:100F5000F385E02D423051056105710571F0433094
:100F600051056105710559F0413051056105710563
:100F700011F062E005C063E003C061E001C060E021
:100F80001994CF93DF93EC01E881F9810284F38512
:100F9000E02D8A81811102C060E001C062E0CE01D3
:100FA0001995E881F9810284F385E02D8A81811108
:100FB00002C061E001C063E0CE0119958CA59DA53A
:100FC0008230910538F0880F991F880F991F059777
:100FD0000197F1F7E881F9810284F385E02D8A8198
:100FE000811102C060E001C062E0CE01DF91CF91CB
:100FF0001994CF93DF93EC0120E030E0A901688DD4
:10100000798D8A8D9B8D0E94D31818161CF4E8A93F
:10101000F9A902C0EAA9FBA9DF91CF9119940F9316
:101020001F93DC0117960C91179710E009301105FA
:10103000D8F5F8018827E758FF4F8F4F0C946C19AB
:10104000ED91FC9111970684F785E02D29C0ED9173
:10105000FC9111970088F189E02D22C0ED91FC915F
:1010600011970288F389E02D1BC0ED91FC91119737
:101070000488F589E02D14C0ED91FC911197068844
:10108000F789E02D0DC0ED91FC911197008CF18D49
:10109000E02D06C0ED91FC911197028CF38DE02DAF
:1010A000CD011F910F9119941F910F9108954F92A7
:1010B0005F926F927F928F929F92AF92BF92CF92E8
:1010C000DF92EF92FF920F931F93CF93DF93EC0188
:1010D000CC88DD88EE88FF8888899989AA89BB89B0
:1010E000C81AD90AEA0AFB0A688D798D8A8D9B8D08
:1010F0009B01AC010E9421174B015C0168A179A101
:101100008AA19BA19B01AC010E94D6179B01AC0157
:10111000C501B4010E943A180E94A218C114D1045A
:10112000E104F104B1F462307105810591050CF020
:1011300079C01B821C821D821E82188E198E1A8E07
:101140001B8E1CAA1DAA1EAA1FAAC12CD12C760177
:10115000EFC00CA91DA92EA93FA91C141D041E0433
:101160001F04FCF410161106120613064CF46C153D
:101170007D058E059F054CF52A81211153C025C0A0
:10118000011511052105310509F44CC06C157D05CB
:101190008E059F050CF046C08A81882309F442C061
:1011A00036C01016110612061306ECF4002711279C
:1011B00098010C191D092E093F0960177107820754
:1011C00093071CF42A81222369F19B01AC01882733
:1011D0009927DC01821B930BA40BB50B8CAB9DAB49
:1011E000AEABBFAB1FC00115110521053105D1F014
:1011F0008824992454018C189D08AE08BF086815EE
:1012000079058A059B0574F48A8181110BC030959C
:101210002095109501951F4F2F4F3F4F0CAB1DABE5
:101220002EAB3FAB8CA89DA8AEA8BFA8811491049B
:10123000A104B10489F488AD99ADAAADBBAD8CAF62
:101240009DAFAEAFBFAF81E01C141D041E041F0490
:101250000CF080E08A833FC0CCACDDACEEACFFACE0
:10126000A7019601C701B6010E94D6172B013C01C8
:10127000C501B4010E94C21620E030E040E850E40D
:101280000E94211720E030E040E85FE30E94D6177B
:101290009B01AC01C301B2010E943A189B01AC0151
:1012A000C701B6010E94D5173B016C01FE01E05C4D
:1012B000FF4FE080F180028113819701A8010E9415
:1012C000D318181614F473018601C701D8018CAF26
:1012D0009DAFAEAFBFAF3FEF831A930AA30AB30A25
:1012E0008CAA9DAAAEAABFAA8CAC9DACAEACBFAC7A
:1012F000C501B4010E94A7186B017C016B837C833C
:101300008D839E83A501940160E074E284E799E4F3
:101310000E943A18688F798F8A8F9B8F2A812111BA
:1013200007C0DC01CB01B058888F998FAA8FBB8F83
:10133000C701B601DF91CF911F910F91FF90EF9000
:10134000DF90CF90BF90AF909F908F907F906F90E5
:101350005F904F900895FC01848DDF01A80FB11DAF
:10136000A35ABF4F2C91848D90E001968F739927DB
:10137000848FA689B7892C93A089B1898C918370B9
:1013800080648C93938D848D981306C00288F389B2
:10139000E02D80818F7D8083089590E0FC0131975E
:1013A000E231F10508F04EC08827EE57FF4F8F4F0E
:1013B0000C946C19809180008F7703C0809180001D
:1013C0008F7D80938000089580918000877FF9CF82
:1013D00084B58F7702C084B58F7D84BD08958091D8
:1013E000B0008F7703C08091B0008F7D8093B000F4
:1013F0000895809190008F7707C0809190008F7D35
:1014000003C080919000877F809390000895809121
:10141000A0008F7707C08091A0008F7D03C08091CE
:10142000A000877F8093A0000895809120018F778E
:1014300007C0809120018F7D03C080912001877FAC
:101440008093200108951F93CF93DF93282F30E0DE
:10145000F901E05CFD4F8491F901E650FE4FD49113
:10146000F901EC54FE4FC491CC23B9F0162F811131
:1014700094DFEC2FF0E0EE0FFF1FE058FE4FA59138
:10148000B4919FB7F894111104C08C91D095D823D2
:1014900002C0EC91DE2BDC939FBFDF91CF911F91B7
:1014A0000895CF92DF92EF92FF920F931F93CF9305
:1014B000DF93EC019F81943041F0983031F093300C
:1014C00031F0963021F012E003C014E001C013E0C7
:1014D0002896E12CF12CC62ED12C01E0C6010E2C51
:1014E00002C0959587950A94E2F76C8180FD60278C
:1014F0008991A9DF8FEFE81AF80AE11678F3DF91F6
:10150000CF911F910F91FF90EF90DF90CF900895B2
:10151000CF93DF9390E0FC01E650FE4F2491FC0155
:10152000EC54FE4F8491882361F190E0880F991F5D
:10153000FC01EA59FE4FC591D491FC01E058FE4FE1
:10154000A591B491611109C09FB7F8948881209545
:1015500082238883EC912E230BC0623061F49FB705
:10156000F8948881322F309583238883EC912E2B39
:101570002C939FBF06C08FB7F894E8812E2B288349
:101580008FBFDF91CF910895CF93DF93FC01278127
:10159000222329F1EC0161E08085BADF61E08985D1
:1015A000B7DF8F81843011F0883031F461E08A85B3
:1015B000AFDF61E08B8506C0833011F0863019F40F
:1015C00061E08A85A5DF8FA58F3F49F061E0A0DF4C
:1015D0006EA581E068278FA5DF91CF9134CFDF9191
:1015E000CF910895CF93DF93FC012781222399F0B7
:1015F000EC010190F081E02D0284F385E02D60E0A4
:1016000019958FA58F3F39F061E082DF6EA58FA518
:10161000DF91CF9118CFDF91CF9108953FB7F89424
:101620008091DF029091E002A091E102B091E2028C
:1016300026B5A89B05C02F3F19F00196A11DB11D2D
:101640003FBFBA2FA92F982F8827820F911DA11D68
:10165000B11DBC01CD0142E0660F771F881F991FA5
:101660004A95D1F708951F920F920FB60F92112449
:101670002F933F938F939F93AF93BF938091E302F8
:101680009091E402A091E502B091E6023091DE0271
:1016900023E0230F2D3720F40196A11DB11D05C0B5
:1016A00026E8230F0296A11DB11D2093DE02809330
:1016B000E3029093E402A093E502B093E6028091E6
:1016C000DF029091E002A091E102B091E202019666
:1016D000A11DB11D8093DF029093E002A093E1026F
:1016E000B093E202BF91AF919F918F913F912F9163
:1016F0000F900FBE0F901F9018954F925F926F92B0
:101700007F928F929F92AF92BF92CF92DF92EF9291
:10171000FF92CF93DF93EC016A017B0120E030E080
:10172000A901C701B6010E94BC1687FF04C0F7FAE1
:10173000F094F7F8F09488A099A0AAA0BBA0A70104
:101740009601C501B4010E94BC16882309F44DC05E
:101750006CA97DA98EA99FA90E94C2162B013C01EC
:10176000A7019601C501B4010E943A189B01AC0182
:10177000C301B2010E9421170E94A2186CAB7DAB7D
:101780008EAB9FABA701960160E070E080E090E433
:101790000E943A180E94DB1826E53EE04DE25FE326
:1017A0000E94211720E034E244E759E40E94211707
:1017B00068AF79AF8AAF9BAFC8A2D9A2EAA2FBA259
:1017C000E881F9810084F185E02DCE01DF91CF9190
:1017D000FF90EF90DF90CF90BF90AF909F908F9051
:1017E0007F906F905F904F901994DF91CF91FF9011
:1017F000EF90DF90CF90BF90AF909F908F907F90B1
:101800006F905F904F900895CF92DF92EF92FF928A
:10181000CF93DF93EC016A017B0120E030E0A90166
:10182000C701B6010E94BC16882351F0B701A6017A
:10183000CE01DF91CF91FF90EF90DF90CF905DCF01
:10184000DF91CF91FF90EF90DF90CF900895CF92EE
:10185000DF92EF92FF920F931F93CF93DF93EC01F0
:101860006A017B0120E030E0A901C701B6010E94B6
:10187000BC1687FF04C0F7FAF094F7F8F0942C8DAB
:101880003D8D4E8D5F8DC701B6010E94BC16882329
:1018900009F44AC0CC8EDD8EEE8EFF8E8E01005C88
:1018A0001F4FA701960160E074E284E799E40E946B
:1018B0003A18F80160837183828393838CA99DA970
:1018C000AEA9BFA9181619061A061B066CF5688D75
:1018D000798D8A8D9B8D9B01AC010E9421176B0134
:1018E0007C0168A179A18AA19BA19B01AC010E9406
:1018F000D6179B01AC01C701B6010E943A180E949D
:10190000A2186CAB7DAB8EAB9FABE881F9810084F4
:10191000F185E02DCE01DF91CF911F910F91FF90C6
:10192000EF90DF90CF901994DF91CF911F910F919D
:10193000FF90EF90DF90CF900895CF92DF92EF92DB
:10194000FF92CF93DF93EC018B819C81AD81BE81AF
:10195000892B8A2B8B2B09F43EC060DE6B017C0146
:1019600088A599A5AAA5BBA5B701A601481B590B37
:101970006A0B7B0B8B819C81AD81BE814817590717
:101980006A077B0740F12A8188899989AA89BB89DE
:10199000222321F00196A11DB11D03C00197A109C9
:1019A000B109888B998BAA8BBB8B488959896A8925
:1019B0007B89E881F9810484F585E02DCE011995B4
:1019C000C8A6D9A6EAA6FBA6E881F9810084F1851C
:1019D000E02DCE01199520E030E0A901688D798DC8
:1019E0008A8D9B8D0E94BC16811110C081E0CC882D
:1019F000DD88EE88FF88488959896A897B89C41601
:101A0000D506E606F70619F480E001C081E0DF9113
:101A1000CF91FF90EF90DF90CF9008950F931F9399
:101A2000DC0150960D911D912D913C915397400FE3
:101A3000511F621F731F54960D911D912D913C9162
:101A40005797401751076207730771F0FC01448BE9
:101A5000558B668B778B0190F081E02D0084F185AA
:101A6000E02D1F910F9119941F910F910895CF921E
:101A7000DF92EF92FF920F931F93CF93DF936C014E
:101A80007A018B01C0E0D0E0CE15DF0581F0D801EE
:101A90006D918D01D601ED91FC910190F081E02DC9
:101AA000C6011995892B11F02196EECF7E01C70151
:101AB000DF91CF911F910F91FF90EF90DF90CF902A
:101AC0000895089580E090E00895FC01538D448DC1
:101AD000252F30E0842F90E0821B930B541710F0D9
:101AE000CF96089501970895FC01918D828D9817E6
:101AF00061F0828DDF01A80FB11D5D968C91928DF2
:101B00009F5F9F73928F90E008958FEF9FEF0895EE
:101B1000FC01918D828D981731F0828DE80FF11DB7
:101B2000858D90E008958FEF9FEF08950E94541ADD
:101B300089EE92E0DED821E0892B09F420E0822FA3
:101B40000895EF92FF920F931F93CF93DF93EC01D1
:101B500081E0888F9B8D8C8D981305C0E889F98969
:101B6000808185FD25C0F62E0B8D10E00F5F1F4F85
:101B70000F731127E02E8C8DE8120BC00FB607FCF7
:101B8000FACFE889F989808185FFF5CFCE01E3DBC3
:101B9000F2CF8B8DFE01E80FF11DE35AFF4FF0826B
:101BA0009FB7F8940B8FEA89FB89808180620AC015
:101BB0009FB7F894EE89FF896083E889F98980816D
:101BC0008370806480839FBF81E090E0DF91CF913C
:101BD0001F910F91FF90EF900895CF93DF93EC0149
:101BE000888D8823C1F0EA89FB89808185FD05C045
:101BF000A889B9898C9186FD0EC00FB607FCF5CF78
:101C0000808185FFF2CFA889B9898C9185FFEDCFBE
:101C1000CE01A1DBE8CFDF91CF9108951F920F9203
:101C20000FB60F9211240BB60F922F933F934F9341
:101C30005F936F937F938F939F93AF93BF93EF9334
:101C4000FF9389EE92E087DBFF91EF91BF91AF9117
:101C50009F918F917F916F915F914F913F912F91C4
:101C60000F900BBE0F900FBE0F901F9018951F92F4
:101C70000F920FB60F9211240BB60F922F938F93E2
:101C80009F93EF93FF93E091F902F091FA02808124
:101C9000E091FF02F091000382FD12C090818091DB
:101CA00002038F5F8F7320910303821751F0E0913D
:101CB0000203F0E0E751FD4F958F8093020301C0CE
:101CC0008081FF91EF919F918F912F910F900BBE8B
:101CD0000F900FBE0F901F901895AC0110928B03C0
:101CE0009091DB058091DA05FA01BF01641B750B49
:101CF00020918B03308130938B03931304C0921394
:101D000002C010928B033191311104C0921769F314
:101D1000CB0108953813E9CFF9CFEF920F93CF930A
:101D2000DF93EC018CE992E0998388836F83188AB2
:101D3000198A1A8A1B8A1C8A1D8A1E8A1F8A188E73
:101D4000198E1A8E1B8E1C8E1D8E1E8E1F8E18A233
:101D500019A21AA21BA280E090E0A0E8BFE38CA326
:101D60009DA3AEA3BFA31B821C821D821E8261E0C5
:101D700070E07DA76CA73FEF3FA718A619A61AA68B
:101D80001BA6488729870A87EB861EA61CAA1DAAC0
:101D90001EAA1FAA18AE19AE1AAE1BAE1CAE1DAEFF
:101DA0001EAE1FAEFE01E05CFF4F80839183A283D5
:101DB000B3831A821C861D861E861F86CE01E4DB35
:101DC00040E050E060E87FE3CE0197DC40E050E087
:101DD00060E87FE3CE01DF91CF910F91EF9037CD97
:101DE000CF93DF93DC01FD01EC012881222351F028
:101DF0003091DB05231301C00196FC0120812D9356
:101E00000196F1CFE817F90710F41192FBCFDF919B
:101E1000CF9108950F931F93CF93DF938091CF05B8
:101E2000882309F440C0813031F482E08093CF05EB
:101E3000CFE8D3E002C0C0E0D0E08091D005882395
:101E400041F1209721F4C091D405D091D5058E01A0
:101E5000CE0143DF892B29F42196F801808181117D
:101E6000F6CFF8018081882301F1C80136DFF8013F
:101E7000E80FF91F8081882311F010823196F093CA
:101E8000D505E093D405902F812F9093D2058093B0
:101E9000D3058091D2059091D305892B21F081E063
:101EA0008093D00505C080E003C090E080E0EDCFD6
:101EB000DF91CF911F910F9108950F931F93CF93AF
:101EC000DF931F921F92CDB7DEB7A4DF811103C04D
:101ED00019821A820EC081E08093D0050091D2054C
:101EE0001091D305C8017CDFF8018081898381814D
:101EF0008A8389819A810F900F90DF91CF911F91F2
:101F00000F910895CF92DF92EF92FF9287DB6B01E2
:101F10007C0184DBDC01CB018C199D09AE09BF0972
:101F2000883E9340A105B105A0F3FF90EF90DF90AC
:101F3000CF9008956115710579F0FB0101900020A3
:101F4000E9F73197AF01461B570BDC01ED91FC918E
:101F50000280F381E02D199480E090E00895DC0187
:101F6000ED91FC910190F081E02D1994CF93C82F51
:101F70008091DA058C1751F08091D905C81731F09E
:101F80008091DB05C81711F0C11107C06091DB0516
:101F90008091D7059091D805E2DF6C2F8091D7050D
:101FA0009091D805CF91DBCF8F929F92AF92BF9245
:101FB000EF92FF920F931F93CF93DF93CDB7DEB7CE
:101FC000A1970FB6F894DEBF0FBECDBF7C01FA011A
:101FD000CB0119A2223008F42AE08E010F5D1F4FB9
:101FE000822E912CA12CB12CBF01A50194010E943D
:101FF0002E19F901CA01015011096A3014F4605D0B
:1020000001C0695CD8016C93232B242B252B61F72D
:10201000B801C7018FDFA1960FB6F894DEBF0FBEDF
:10202000CDBFDF91CF911F910F91FF90EF90BF90A7
:10203000AF909F908F900895CF93DF93EC018C89A0
:102040009D89AE89BF89481759076A077B0759F0F0
:102050004C8B5D8B6E8B7F8BE881F9810084F185E1
:10206000E02DCE011995CE0168DC8111FCCFDF9106
:10207000CF9108950F931F93CF93DF9300D01F92BA
:10208000CDB7DEB7C7DE811105C019821A821B8267
:102090001C8212C081E08093D0050091D20510917E
:1020A000D305C8019DDEF8018081898381818A83FF
:1020B00082818B8383818C8369817A818B819C81EE
:1020C0000F900F900F900F90DF91CF911F910F9174
:1020D0000895CF93DF93EC016FA76F3F51F0862FE8
:1020E00061E016DA6EA581E068278FA5DF91CF91B8
:1020F000AAC9DF91CF91089580914E0890914F0821
:10210000009709F08BC50895CF93DF9300D01F92FD
:10211000CDB7DEB7789484B5826084BD84B5816024
:1021200084BD85B5826085BD85B5816085BD8091A2
:102130006E00816080936E0010928100809181001A
:102140008260809381008091810081608093810012
:10215000809180008160809380008091B1008460D4
:102160008093B1008091B00081608093B000809135
:1021700091008260809391008091910081608093B2
:102180009100809190008160809390008091A100E7
:1021900082608093A1008091A10081608093A10062
:1021A0008091A00081608093A000809121018260D5
:1021B0008093210180912101816080932101809190
:1021C000200181608093200180917A008460809357
:1021D0007A0080917A00826080937A0080917A0000
:1021E000816080937A0080917A00806880937A0081
:1021F0001092C100E091F902F091FA0282E080832E
:10220000E091F502F091F6021082E091F702F09170
:10221000F80280E1808310920103E091FD02F091C9
:10222000FE0286E08083E091FB02F091FC02808157
:1022300080618083E091FB02F091FC0280818860E4
:102240008083E091FB02F091FC02808180688083B2
:10225000E091FB02F091FC0280818F7D808386EA11
:1022600092E09093DF058093DE058DE093E09093FC
:10227000E3058093E20585E493E09093E105809384
:10228000E0058AE095E09093E5058093E4058AE314
:1022900094E09093E7058093E60587E791E09093BB
:1022A000E9058093E80582E892E09093EB0580933E
:1022B000EA0589E592E09093ED058093EC0580E4D2
:1022C00092E09093EF058093EE0587E292E0909381
:1022D000F1058093F0058EE092E09093F3058093F2
:1022E000F20585EF91E09093F5058093F40585E97B
:1022F00091E09093F7058093F6050E946E0556E8ED
:10230000252E52E0352E28E632E03A832983A98132
:10231000BA818C911296BA83A98362E0F9D8E981D7
:10232000FA812E163F0699F738EE432E33E0532EEE
:10233000612C712C40E1842E47E2942EA12CB12C0B
:1023400080918D0381110EC08091D7059091D805A1
:10235000DC01ED91FC910084F185E02D1995892B2C
:1023600009F095C12EE132E03A832983790108E62C
:1023700012E0D8012D913D918D013327F901E05CE8
:10238000FD4F8491F901E650FE4FC490F901EC54E1
:10239000FE4FD490DD20A1F081110E94CD09ED2DDA
:1023A000F0E0EE0FFF1FE656FE4FA591B491EC91C1
:1023B000CE2231E020E009F430E0832F922F02C0DA
:1023C00080E090E0F701819391937F012016310620
:1023D00081F60091E70220E032E0EEE1F2E0D9017F
:1023E00010E0808191814D915C91119748175907B8
:1023F00049F412966D917C91139742815381641731
:10240000750781F08130910529F4828193810197CC
:1024100029F407C0892B11F401E001C003E0010F8A
:1024200001C0012F149634961C5F1C31D1F6009325
:10243000E70280913A0290913B0240911C02509138
:102440001D028417950719F0845E8093E7028CE3E0
:1024500092E0A981BA814D915D91BA83A983F90176
:10246000419351939F018A179B0799F78091E70247
:102470009091E802981709F4F5C090E08F3191052A
:1024800008F0ECC0FC018827EC56FF4F8F4F24C7A3
:1024900048E55EE96FEF7FEF07C080E090E05AC04B
:1024A00048EA51E660E070E080E090E00E940E03B0
:1024B000D5C048E55EE96FEF7FEF07C081E090E0AF
:1024C00049C048EA51E660E070E081E090E0EECF7C
:1024D00040E050E0BA0107C082E090E03BC040E13C
:1024E00057E260E070E082E090E0E0CF4CE95FEF1F
:1024F0006FEF7FEF07C083E090E02CC044E650E030
:1025000060E070E083E090E0D1CF4CE95FEF6FEFE7
:102510007FEF07C084E090E01DC044E650E060E03B
:1025200070E084E090E0C2CF4CE95FEF6FEF7FEFA7
:1025300007C085E090E00EC044E650E060E070E047
:1025400085E090E0B3CF4CE95FEF6FEF7FEF09C01C
:1025500086E090E00E94D00381C044E650E060E055
:1025600070E086E090E0A2CF22E330E040E050E06F
:102570002093440230934502409346025093470211
:102580004092500250925102609252027092530255
:1025900084EF91E0A0E0B0E080934002909341028C
:1025A000A0934202B093430280924C0290924D025B
:1025B000A0924E02B0924F0222E030E040E050E0A4
:1025C00020933C0230933D0240933E0250933F02E1
:1025D000409248025092490260924A0270924B0225
:1025E00038C0409244025092450260924602709276
:1025F00047028092500290925102A0925202B092F1
:1026000053028CEB92E0A0E0B0E080934002909304
:102610004102A0934202B093430280924C029092F6
:102620004D02A0924E02B0924F0222E330E040E011
:1026300050E020933C0230933D0240933E02509381
:102640003F028092480290924902A0924A02B092C0
:102650004B020E946E0502C00E94AD028091E7020B
:102660008093E8024AE552E05A83498308E612E083
:10267000A981BA818D919D91BA83A9835ED9E9819F
:10268000FA810E171F07A1F70E94850659CE809187
:10269000D7059091D805DC01ED91FC910084F1857E
:1026A000E02D1995811592400CF0D6C08091D70588
:1026B0009091D805DC01ED91FC910084F185E02D2D
:1026C00019957C01E091D705F091D805FC83EB8347
:1026D0002FEC33E03A832983690100E010E0E01633
:1026E000F10619F41C821B8276C02FB7F8948091F2
:1026F000E3029091E402A091E502B091E6022FBFBF
:10270000EB81FC8180879187A287B387AB81BC81F5
:10271000ED91FC9111970284F385E02DCD0119957F
:1027200097FF9EC02FB7F8948091E3029091E40246
:10273000A091E502B091E6022FBFEB81FC814085BC
:10274000518562857385841B950BA60BB70B44815D
:1027500055816681778184179507A607B707B0F280
:10276000C1CFA981BA819D91BA83A9831092CF0567
:102770003091DB0520918C0390938C03931789F1A2
:102780004091D90580918803E82FF0E0EA57FC4F8B
:1027900094132CC0321751F11186882329F0B1E02F
:1027A000B093CF0510928C03109288031092D3053A
:1027B0001092D2051092D5051092D405E1E0E09375
:1027C000D0051091CF051130D1F02B813C812F5FC6
:1027D0003F4F3C832B832B813C81E216F30609F6A5
:1027E000AFCD9213CDCF10928C03CACF91878F5F5C
:1027F0008093880390918A038917B0F6E2CF0ADBB1
:10280000882351F01093D0051093D1058091D20503
:102810009091D3058CD204C01092D10580E090E055
:1028200080938703823378F42091D105222359F0D5
:10283000FC01FF27EE0FFF1FE252FA4F0190F081DB
:10284000E02D309739F4E091DC05F091DD0530970B
:1028500009F4BBCF1995B9CFE12C82E0F82E32CF25
:10286000F60181936F010F5F1F4F39CFEF920F93E6
:102870001092EC021092EB0288EE93E0A0E0B0E040
:102880008093ED029093EE02A093EF02B093F002DA
:102890008AE892E09093EA028093E90285EC90E066
:1028A0009093F6028093F50284EC90E09093F80206
:1028B0008093F70280EC90E09093FA028093F90203
:1028C00081EC90E09093FC028093FB0282EC90E01C
:1028D0009093FE028093FD0286EC90E090930003BB
:1028E0008093FF02109202031092030310920403DC
:1028F0001092050310924F0810924E081092510842
:1029000010925008109253081092520861E070E043
:1029100080E090E0E9D4009791F090934F08809385
:102920004E08109251081092500820915208309190
:102930005308232B09F0CEC0FC011082CBC080913C
:102940004E0890914F08009709F068D110924F08F7
:1029500010924E081092530810925208109251088B
:102960001092500888E59EE9AFEFBFEF80933608DC
:1029700090933708A0933808B093390888EA91E615
:10298000A0E0B0E080933A0890933B08A0933C0805
:10299000B0933D0810923E0810923F0810924008F4
:1029A0001092410880E197E2A0E0B0E080934208F5
:1029B00090934308A0934408B09345088CE99FEF97
:1029C000AFEFBFEF8093460890934708A093480865
:1029D000B093490884E690E0A0E0B0E080934A0814
:1029E00090934B08A0934C08B0934D0881E1E82EDA
:1029F00000E12EE04FE064E08AED97E08ED995E1AA
:102A0000E92E04E123E142E164E086E997E085D91B
:102A100029E1E22E07E128E146E168E082E597E05E
:102A20007CD93DE1E32E0CE12AE14BE168E08EE048
:102A300097E073D941E2E42E00E22FE14EE168E035
:102A40008AEC96E06AD955E2E52E04E223E242E2FE
:102A500068E086E896E061D969E2E62E08E227E2BE
:102A600046E268E082E496E058D91092DD051092C3
:102A7000DC0589EE92E09093D8058093D7051092FB
:102A80008E038CE28093DA058BE38093D9058FE285
:102A90008093DB0580E4809389038FE380938A032E
:102AA000109288031092D3051092D2051092D5058A
:102AB0001092D40581E08093D005EEEDF5E01192FF
:102AC000119286E0E234F807D1F710928D030F914E
:102AD000EF90089510925308109252086CEC72E037
:102AE00080914E0890914F08ECD43CCF0F931F93E8
:102AF000CF93DF938230910510F482E090E0E09173
:102B00005608F091570820E030E0A0E0B0E03097A0
:102B100019F1408151810281138148175907C8F08A
:102B20008417950769F4109731F012960C93129759
:102B300013961C9327C0009356081093570822C081
:102B40002115310519F04217530718F49A01BD01F8
:102B5000EF01DF01F801DBCF21153105F9F0281B6A
:102B6000390B2430310580F48A819B816115710510
:102B700021F0FB019383828304C0909357088093D4
:102B80005608FE01329644C0FE01E20FF31F819306
:102B9000919322503109398328833AC020915408F7
:102BA00030915508232B41F4209156023091570261
:102BB00030935508209354082091540230915502C7
:102BC0002115310541F42DB73EB74091580250917F
:102BD0005902241B350BE0915408F0915508E21777
:102BE000F307A0F42E1B3F0B2817390778F0AC0130
:102BF0004E5F5F4F2417350748F04E0F5F1F50930D
:102C00005508409354088193919302C0E0E0F0E0AE
:102C1000CF01DF91CF911F910F910895CF93DF9353
:102C2000009709F481C0FC01329713821282A091AF
:102C30005608B0915708109781F420813181820F96
:102C4000931F20915408309155082817390751F5E2
:102C5000F0935508E093540867C0ED0120E030E0A0
:102C6000CE17DF0740F44A815B819E014115510573
:102C7000F1F0EA01F5CFD383C28340815181840F03
:102C8000951FC817D90759F488819981840F951F1A
:102C90000296918380838A819B819383828321150D
:102CA000310529F4F0935708E09356083DC0E90137
:102CB000FB83EA8349915991C40FD51FEC17FD0797
:102CC00061F480819181840F951F0296E9019983B7
:102CD0008883828193819B838A83E0E0F0E012966F
:102CE0008D919C911397009719F0FD01DC01F7CFAE
:102CF0008D919C9111979D012E5F3F4F820F931FE5
:102D000020915408309155082817390769F43097F5
:102D100029F4109257081092560802C013821282AA
:102D2000B0935508A0935408DF91CF910895FC010A
:102D300088279927E89421912032E9F3293010F06F
:102D40002E30C8F32B3239F02D3231F4689403C0A1
:102D50000BD0820F911D219120532A30C8F31EF40D
:102D6000909581959F4F08957AE0979F902D879F2A
:102D7000802D910D1124089540D008F481E008952C
:102D8000E89409C097FB3EF4909580957095619505
:102D90007F4F8F4F9F4F9923A9F0F92F96E9BB27BB
:102DA0009395F695879577956795B795F111F8CF37
:102DB000FAF4BB0F11F460FF1BC06F5F7F4F8F4FA2
:102DC0009F4F16C0882311F096E911C0772321F098
:102DD0009EE8872F762F05C0662371F096E8862F30
:102DE00070E060E02AF09A95660F771F881FDAF787
:102DF000880F9695879597F90895990F0008550FB4
:102E0000AA0BE0E8FEEF16161706E807F907C0F070
:102E100012161306E407F50798F0621B730B840B78
:102E2000950B39F40A2661F0232B242B252B21F452
:102E300008950A2609F4A140A6958FEF811D811DF2
:102E400008950BD078C069D028F06ED018F0952383
:102E500009F05AC05FC01124A2C07ED0A0F3959F94
:102E6000D1F3950F50E0551F629FF001729FBB2771
:102E7000F00DB11D639FAA27F00DB11DAA1F649F1D
:102E80006627B00DA11D661F829F2227B00DA11DD0
:102E9000621F739FB00DA11D621F839FA00D611D56
:102EA000221F749F3327A00D611D231F849F600D77
:102EB000211D822F762F6A2F11249F5750408AF0B0
:102EC000E1F088234AF0EE0FFF1FBB1F661F771F3C
:102ED000881F91505040A9F79E3F510570F014C0D3
:102EE0005EC05F3FECF3983EDCF38695779567957F
:102EF000B795F795E7959F5FC1F7FE2B880F911D5A
:102F00009695879597F9089597F99F6780E870E0FF
:102F100060E008959FEF80EC089500240A9416164F
:102F2000170618060906089500240A9412161306B7
:102F3000140605060895092E0394000C11F4882345
:102F400052F0BB0F40F4BF2B11F460FF04C06F5F61
:102F50007F4F8F4F9F4F089557FD9058440F551F37
:102F600059F05F3F71F04795880F97FB991F61F00B
:102F70009F3F79F087950895121613061406551F82
:102F8000F2CF4695F1DF08C0161617061806991FEE
:102F9000F1CF86957105610508940895E894BB27E3
:102FA00066277727CB0197F908955058BB27AA27A2
:102FB0000ED0C1CFB2DF30F0B7DF20F031F49F3F49
:102FC00011F41EF4A7CF0EF4E095E7FB9DCFE92F97
:102FD000C3DF80F3BA17620773078407950718F0F9
:102FE00071F49EF5DBCF0EF4E0950B2EBA2FA02DD9
:102FF0000B01B90190010C01CA01A0011124FF27A6
:10300000591B99F0593F50F4503E68F11A16F040A0
:10301000A22F232F342F4427585FF3CF469537959F
:103020002795A795F0405395C9F77EF41F16BA0B64
:10303000620B730B840BBAF09150A1F0FF0FBB1F12
:10304000661F771F881FC2F70EC0BA0F621F731F5B
:10305000841F48F4879577956795B795F7959E3FB8
:1030600008F0B3CF9395880F08F09927EE0F979546
:10307000879508950CD05FCF57DF40F04EDF30F0DA
:1030800021F45F3F19F040CF511189CF43CF64DF66
:1030900098F39923C9F35523B1F3951B550BBB271F
:1030A000AA2762177307840738F09F5F5F4F220FCC
:1030B000331F441FAA1FA9F333D00E2E3AF0E0E8C5
:1030C00030D091505040E695001CCAF729D0FE2F11
:1030D00027D0660F771F881FBB1F261737074807A3
:1030E000AB07B0E809F0BB0B802DBF01FF27935859
:1030F0005F4F2AF09E3F510568F006CF50CF5F3FEB
:10310000ECF3983EDCF3869577956795B795F79540
:103110009F5FC9F7880F911D9695879597F9089538
:10312000E1E0660F771F881FBB1F621773078407D4
:10313000BA0720F0621B730B840BBA0BEE1F88F7E3
:10314000E095089504D06894B11129CF08950CDF5B
:1031500088F09F5790F0B92F9927B751A0F0D1F080
:10316000660F771F881F991F1AF0BA95C9F712C00A
:10317000B13081F013DFB1E0089510CF672F782FC1
:103180008827B85F39F0B93FCCF386957795679576
:10319000B395D9F73EF490958095709561957F4FE2
:1031A0008F4F9F4F089529DE08F48FEF089511F493
:1031B0000EF4B0CE3EC0D8DED0F39923D9F3CEF3CF
:1031C0009F57550B87FF43D00024A0E640EA9001AB
:1031D00080585695979528F4805C660F771F881F56
:1031E00020F026173707480730F4621B730B840B57
:1031F000202931294A2BA69517940794202531259B
:103200004A2758F7660F771F881F20F026173707C1
:10321000480730F4620B730B840B200D311D411DE8
:10322000A09581F7B901842F9158880F96958795BD
:1032300008959F3F31F0915020F4879577956795D9
:10324000B795880F911D9695879597F90895915098
:103250005040660F771F881FD2F70895A1E21A2EFB
:10326000AA1BBB1BFD010DC0AA1FBB1FEE1FFF1F2A
:10327000A217B307E407F50720F0A21BB30BE40B7A
:10328000F50B661F771F881F991F1A9469F76095C1
:103290007095809590959B01AC01BD01CF0108957B
:1032A000052E97FB16F400940FD057FD05D0D6DFFE
:1032B00007FC02D046F408C0509540953095219502
:1032C0003F4F4F4F5F4F0895909580957095619552
:1032D0007F4F8F4F9F4F0895EE0FFF1F881F8BBFAB
:1032E0000790F691E02D19946F927F928F929F92A2
:1032F000AF92BF92CF92DF92EF92FF920F931F9304
:10330000CF93DF93009781F4CB01DF91CF911F9191
:103310000F91FF90EF90DF90CF90BF90AF909F9074
:103320008F907F906F90E2CBFC01E60FF71F9C011E
:1033300022503109E217F30708F4A5C0EC01D901C6
:103340000D911C91119706171707A8F0053011056C
:1033500008F497C0C80104978617970708F491C02E
:1033600002501109061B170B019311936D937C9367
:10337000CF0154DC86C05B01A01AB10A4C01800E5B
:10338000911EA0915608B0915708612C712CE12C28
:10339000F12C109709F446C08D919C911197A815B6
:1033A000B905B1F56C0142E0C40ED11CCA14DB04AE
:1033B00078F14C018A189B08640142E0C40ED11CCC
:1033C0001296BC9012971396AC91B5E0CB16D1042F
:1033D00040F0B282A38391828082D9016D937C9365
:1033E00009C00E5F1F4F800F911FF90191838083E9
:1033F000EB2DFA2FE114F10431F0D7011396FC9371
:10340000EE9312973EC0F0935708E093560839C0E8
:103410006816790608F43C017D0112960D90BC9166
:10342000A02DB7CF80915408909155088816990621
:10343000E1F466167706C8F4809154029091550223
:10344000009741F48DB79EB74091580250915902B0
:10345000841B950BE817F907B0F4F0935508E09337
:103460005408F901718360830CC0CB013FDB7C0100
:10347000009749F0A801BE011BD0CE01CFDBC701E8
:1034800004C0CE0102C080E090E0DF91CF911F9197
:103490000F91FF90EF90DF90CF90BF90AF909F90F3
:1034A0008F907F906F90089581E090E0F89410C025
:1034B000FB01DC0102C001900D9241505040D8F751
:1034C0000895FB01DC0101900D920020E1F70895C1
:1034D00011E0C4E4D1E000E005C0802FFE01FCDE75
:1034E0002196011DC534D10780E00807B1F7F89493
:0234F000FFCF0C
:1034F20001000100010001000100010001000100C2
:1035020001000100010001000100010001000100B1
:1035120001000100010001000100010001000100A1
:103522000100010001000100010001003200000061
:10353200BC020000E8030000102700001027000072
:1035420010270000000058082000DA0796075207EB
:103552000E07CA06860642062B002A002D002C0002
:103562002F002E00330032003100300035003400CD
:103572000B000A000C0000000000A10D370D650DC4
:10358200ED0D7906740D880D00000000F20AC40AE0
:103592007806AB025708510A0F08F907C107A007BE
:1035A2006C074B07F506BD0664009CFF1027000060
:0E35B2000000A8610000589EFFFF0D0A0000F7
:00000001FF
